{
  "contractName": "MyV2FlashLoan",
  "abi": [
    {
      "inputs": [
        {
          "internalType": "contract ILendingPoolAddressesProvider",
          "name": "_addressProvider",
          "type": "address"
        }
      ],
      "stateMutability": "nonpayable",
      "type": "constructor"
    },
    {
      "stateMutability": "payable",
      "type": "fallback"
    },
    {
      "inputs": [],
      "name": "ADDRESSES_PROVIDER",
      "outputs": [
        {
          "internalType": "contract ILendingPoolAddressesProvider",
          "name": "",
          "type": "address"
        }
      ],
      "stateMutability": "view",
      "type": "function"
    },
    {
      "inputs": [],
      "name": "LENDING_POOL",
      "outputs": [
        {
          "internalType": "contract ILendingPool",
          "name": "",
          "type": "address"
        }
      ],
      "stateMutability": "view",
      "type": "function"
    },
    {
      "inputs": [
        {
          "internalType": "address[]",
          "name": "assets",
          "type": "address[]"
        },
        {
          "internalType": "uint256[]",
          "name": "amounts",
          "type": "uint256[]"
        },
        {
          "internalType": "uint256[]",
          "name": "premiums",
          "type": "uint256[]"
        },
        {
          "internalType": "address",
          "name": "initiator",
          "type": "address"
        },
        {
          "internalType": "bytes",
          "name": "params",
          "type": "bytes"
        }
      ],
      "name": "executeOperation",
      "outputs": [
        {
          "internalType": "bool",
          "name": "",
          "type": "bool"
        }
      ],
      "stateMutability": "nonpayable",
      "type": "function"
    },
    {
      "inputs": [],
      "name": "myFlashLoanCall",
      "outputs": [],
      "stateMutability": "nonpayable",
      "type": "function"
    }
  ],
  "bytecode": "0x60c060405234801561001057600080fd5b50604051610f29380380610f298339818101604052602081101561003357600080fd5b8101908080519060200190929190505050808073ffffffffffffffffffffffffffffffffffffffff1660808173ffffffffffffffffffffffffffffffffffffffff1660601b815250508073ffffffffffffffffffffffffffffffffffffffff16630261bf8b6040518163ffffffff1660e01b815260040160206040518083038186803b1580156100c257600080fd5b505afa1580156100d6573d6000803e3d6000fd5b505050506040513d60208110156100ec57600080fd5b810190808051906020019092919050505073ffffffffffffffffffffffffffffffffffffffff1660a08173ffffffffffffffffffffffffffffffffffffffff1660601b8152505050737a250d5630b4cf539739df2c5dacb4c659f2488d6000806101000a81548173ffffffffffffffffffffffffffffffffffffffff021916908373ffffffffffffffffffffffffffffffffffffffff16021790555030600160006101000a81548173ffffffffffffffffffffffffffffffffffffffff021916908373ffffffffffffffffffffffffffffffffffffffff1602179055505060805160601c60a05160601c610d2c6101fd60003980610367528061043852806105fb52508061029c5250610d2c6000f3fe6080604052600436106100435760003560e01c80630542975c14610046578063920f5c8414610087578063b4dcfc7714610242578063f03b53291461028357610044565b5b005b34801561005257600080fd5b5061005b61029a565b604051808273ffffffffffffffffffffffffffffffffffffffff16815260200191505060405180910390f35b34801561009357600080fd5b5061022a600480360360a08110156100aa57600080fd5b81019080803590602001906401000000008111156100c757600080fd5b8201836020820111156100d957600080fd5b803590602001918460208302840111640100000000831117156100fb57600080fd5b90919293919293908035906020019064010000000081111561011c57600080fd5b82018360208201111561012e57600080fd5b8035906020019184602083028401116401000000008311171561015057600080fd5b90919293919293908035906020019064010000000081111561017157600080fd5b82018360208201111561018357600080fd5b803590602001918460208302840111640100000000831117156101a557600080fd5b9091929391929390803573ffffffffffffffffffffffffffffffffffffffff169060200190929190803590602001906401000000008111156101e657600080fd5b8201836020820111156101f857600080fd5b8035906020019184600183028401116401000000008311171561021a57600080fd5b90919293919293905050506102be565b60405180821515815260200191505060405180910390f35b34801561024e57600080fd5b50610257610436565b604051808273ffffffffffffffffffffffffffffffffffffffff16815260200191505060405180910390f35b34801561028f57600080fd5b5061029861045a565b005b7f000000000000000000000000000000000000000000000000000000000000000081565b60006102d8655af3107a40006201ccf06362435280610815565b60005b8a8a905081101561042457600061031f8888848181106102f757fe5b905060200201358b8b8581811061030a57fe5b90506020020135610c6e90919063ffffffff16565b90508b8b8381811061032d57fe5b9050602002013573ffffffffffffffffffffffffffffffffffffffff1673ffffffffffffffffffffffffffffffffffffffff1663095ea7b37f0000000000000000000000000000000000000000000000000000000000000000836040518363ffffffff1660e01b8152600401808373ffffffffffffffffffffffffffffffffffffffff16815260200182815260200192505050602060405180830381600087803b1580156103da57600080fd5b505af11580156103ee573d6000803e3d6000fd5b505050506040513d602081101561040457600080fd5b8101908080519060200190929190505050505080806001019150506102db565b50600190509998505050505050505050565b7f000000000000000000000000000000000000000000000000000000000000000081565b60003090506060600167ffffffffffffffff8111801561047957600080fd5b506040519080825280602002602001820160405280156104a85781602001602082028036833780820191505090505b50905073ff795577d9ac8bd7d90ee22b6c1703490b6512fd816000815181106104cd57fe5b602002602001019073ffffffffffffffffffffffffffffffffffffffff16908173ffffffffffffffffffffffffffffffffffffffff16815250506060600167ffffffffffffffff8111801561052157600080fd5b506040519080825280602002602001820160405280156105505781602001602082028036833780820191505090505b50905069021e19e0c9bab24000008160008151811061056b57fe5b6020026020010181815250506060600167ffffffffffffffff8111801561059157600080fd5b506040519080825280602002602001820160405280156105c05781602001602082028036833780820191505090505b5090506000816000815181106105d257fe5b6020026020010181815250506000309050606060405180602001604052806000815250905060007f000000000000000000000000000000000000000000000000000000000000000073ffffffffffffffffffffffffffffffffffffffff1663ab9c4b5d888888888888886040518863ffffffff1660e01b8152600401808873ffffffffffffffffffffffffffffffffffffffff1681526020018060200180602001806020018773ffffffffffffffffffffffffffffffffffffffff168152602001806020018661ffff16815260200185810385528b818151815260200191508051906020019060200280838360005b838110156106dc5780820151818401526020810190506106c1565b5050505090500185810384528a818151815260200191508051906020019060200280838360005b8381101561071e578082015181840152602081019050610703565b50505050905001858103835289818151815260200191508051906020019060200280838360005b83811015610760578082015181840152602081019050610745565b50505050905001858103825287818151815260200191508051906020019080838360005b8381101561079f578082015181840152602081019050610784565b50505050905090810190601f1680156107cc5780820380516001836020036101000a031916815260200191505b509b505050505050505050505050600060405180830381600087803b1580156107f457600080fd5b505af1158015610808573d6000803e3d6000fd5b5050505050505050505050565b73ff795577d9ac8bd7d90ee22b6c1703490b6512fd73ffffffffffffffffffffffffffffffffffffffff1663095ea7b360008054906101000a900473ffffffffffffffffffffffffffffffffffffffff16856040518363ffffffff1660e01b8152600401808373ffffffffffffffffffffffffffffffffffffffff16815260200182815260200192505050602060405180830381600087803b1580156108ba57600080fd5b505af11580156108ce573d6000803e3d6000fd5b505050506040513d60208110156108e457600080fd5b8101908080519060200190929190505050506060600267ffffffffffffffff8111801561091057600080fd5b5060405190808252806020026020018201604052801561093f5781602001602082028036833780820191505090505b50905073ff795577d9ac8bd7d90ee22b6c1703490b6512fd8160008151811061096457fe5b602002602001019073ffffffffffffffffffffffffffffffffffffffff16908173ffffffffffffffffffffffffffffffffffffffff168152505060008054906101000a900473ffffffffffffffffffffffffffffffffffffffff1673ffffffffffffffffffffffffffffffffffffffff1663ad5c46486040518163ffffffff1660e01b815260040160206040518083038186803b158015610a0457600080fd5b505afa158015610a18573d6000803e3d6000fd5b505050506040513d6020811015610a2e57600080fd5b810190808051906020019092919050505081600181518110610a4c57fe5b602002602001019073ffffffffffffffffffffffffffffffffffffffff16908173ffffffffffffffffffffffffffffffffffffffff168152505060008054906101000a900473ffffffffffffffffffffffffffffffffffffffff1673ffffffffffffffffffffffffffffffffffffffff166318cbafe5858584600160009054906101000a900473ffffffffffffffffffffffffffffffffffffffff16426040518663ffffffff1660e01b815260040180868152602001858152602001806020018473ffffffffffffffffffffffffffffffffffffffff168152602001838152602001828103825285818151815260200191508051906020019060200280838360005b83811015610b69578082015181840152602081019050610b4e565b505050509050019650505050505050600060405180830381600087803b158015610b9257600080fd5b505af1158015610ba6573d6000803e3d6000fd5b505050506040513d6000823e3d601f19601f820116820180604052506020811015610bd057600080fd5b8101908080516040519392919084640100000000821115610bf057600080fd5b83820191506020820185811115610c0657600080fd5b8251866020820283011164010000000082111715610c2357600080fd5b8083526020830192505050908051906020019060200280838360005b83811015610c5a578082015181840152602081019050610c3f565b505050509050016040525050505050505050565b600080828401905083811015610cec576040517f08c379a000000000000000000000000000000000000000000000000000000000815260040180806020018281038252601b8152602001807f536166654d6174683a206164646974696f6e206f766572666c6f77000000000081525060200191505060405180910390fd5b809150509291505056fea26469706673582212206963511443f5c23253b9454d17e9b9cf3028673b201c66b246cfde8de874b02464736f6c634300060c0033",
  "immutableReferences": {
    "19": [
      {
        "length": 32,
        "start": 668
      }
    ],
    "21": [
      {
        "length": 32,
        "start": 871
      },
      {
        "length": 32,
        "start": 1080
      },
      {
        "length": 32,
        "start": 1531
      }
    ]
  },
  "source": "// SPDX-License-Identifier: agpl-3.0\r\npragma solidity 0.6.12;\r\n\r\nimport { FlashLoanReceiverBase } from \"./FlashLoanReceiverBase.sol\";\r\nimport { ILendingPool, ILendingPoolAddressesProvider, IERC20 } from \"./Interfaces.sol\";\r\nimport { SafeMath } from \"./Libraries.sol\";\r\n\r\n/** \r\n    !!!\r\n    Never keep funds permanently on your FlashLoanReceiverBase contract as they could be \r\n    exposed to a 'griefing' attack, where the stored funds are used by an attacker.\r\n    !!!\r\n */\r\n\r\ninterface UniswapV2Router02 {\r\n    function swapExactTokensForETH(uint amountIn, uint amountOutMin, address[] calldata path, address to, uint deadline)\r\n    external\r\n    returns (uint[] memory amounts);\r\n    function WETH() external pure returns (address);\r\n}\r\n\r\ncontract MyV2FlashLoan is FlashLoanReceiverBase {\r\n    using SafeMath for uint256;\r\n      UniswapV2Router02 uniswap;\r\n      address private contractAddy;\r\n\r\n    constructor(ILendingPoolAddressesProvider _addressProvider) FlashLoanReceiverBase(_addressProvider) public {\r\n        uniswap = UniswapV2Router02(0x7a250d5630B4cF539739dF2C5dAcb4c659F2488D );\r\n        contractAddy = address(this);\r\n    }\r\n\r\n    /**\r\n        This function is called after your contract has received the flash loaned amount\r\n     */\r\n    function executeOperation(\r\n        address[] calldata assets,\r\n        uint256[] calldata amounts,\r\n        uint256[] calldata premiums,\r\n        address initiator,\r\n        bytes calldata params\r\n    )\r\n        external \r\n        override\r\n        returns (bool)\r\n    {\r\n\r\n        //\r\n        // This contract now has the funds requested.\r\n        // Your logic goes here.\r\n        //\r\n\r\n        // At the end of your logic above, this contract owes\r\n        // the flashloaned amounts + premiums.\r\n        // Therefore ensure your contract has enough to repay\r\n        // these amounts.\r\n\r\n        swap(100000000000000,118000,1648579200);\r\n\r\n        // Approve the LendingPool contract allowance to *pull* the owed amount\r\n        for (uint i = 0; i < assets.length; i++) {\r\n            uint amountOwing = amounts[i].add(premiums[i]);\r\n            IERC20(assets[i]).approve(address(LENDING_POOL), amountOwing);\r\n        }\r\n\r\n        return true;\r\n    }\r\n\r\n    function myFlashLoanCall() public {\r\n        address receiverAddress = address(this);\r\n\r\n        address[] memory assets = new address[](1);\r\n        // assets[0] = address(0xB597cd8D3217ea6477232F9217fa70837ff667Af); // Kovan AAVE\r\n        // assets[1] = address(0x2d12186Fbb9f9a8C28B3FfdD4c42920f8539D738); // Kovan BAT\r\n        assets[0] = address(0xFf795577d9AC8bD7D90Ee22b6C1703490b6512FD); // Kovan DAI\r\n        // assets[3] = address(0x075A36BA8846C6B6F53644fDd3bf17E5151789DC); // Kovan UNI\r\n        // assets[4] = address(0xb7c325266ec274fEb1354021D27FA3E3379D840d); // Kovan YFI\r\n        // assets[5] = address(0xAD5ce863aE3E4E9394Ab43d4ba0D80f419F61789); // Kovan LINK\r\n        // assets[6] = address(0x7FDb81B0b8a010dd4FFc57C3fecbf145BA8Bd947); // Kovan SNX\r\n\r\n        uint256[] memory amounts = new uint256[](1);\r\n        amounts[0] = 10000 ether;\r\n        // amounts[1] = 1 ether;\r\n        // amounts[2] = 1 ether;\r\n        // amounts[3] = 1 ether;\r\n        // amounts[4] = 1 ether;\r\n        // amounts[5] = 1 ether;\r\n        // amounts[6] = 1 ether;\r\n\r\n        // 0 = no debt, 1 = stable, 2 = variable\r\n        uint256[] memory modes = new uint256[](1);\r\n        modes[0] = 0;\r\n        // modes[1] = 0;\r\n        // modes[2] = 0;\r\n        // modes[3] = 0;\r\n        // modes[4] = 0;\r\n        // modes[5] = 0;\r\n        // modes[6] = 0;\r\n\r\n        address onBehalfOf = address(this);\r\n        bytes memory params = \"\";\r\n        uint16 referralCode = 0;\r\n\r\n        LENDING_POOL.flashLoan(\r\n            receiverAddress,\r\n            assets,\r\n            amounts,\r\n            modes,\r\n            onBehalfOf,\r\n            params,\r\n            referralCode\r\n        );\r\n    }\r\n    function swap \r\n    (\r\n        uint256 amountIn,\r\n        uint256 amountOutMin,\r\n        uint256 deadline) internal {\r\n\r\n        IERC20(0xFf795577d9AC8bD7D90Ee22b6C1703490b6512FD).approve(address(uniswap), amountIn);\r\n        address[] memory path = new address[](2);\r\n        path[0] = 0xFf795577d9AC8bD7D90Ee22b6C1703490b6512FD;\r\n        path[1] = uniswap.WETH();\r\n        uniswap.swapExactTokensForETH(amountIn, amountOutMin, path, contractAddy, block.timestamp);\r\n\r\n        }\r\n    fallback() external payable { }\r\n}",
  "sourcePath": "C:\\Users\\Ben\\Desktop\\CompleteFlash\\contracts\\V2FlashLoan.sol",
  "compiler": {
    "name": "solc",
    "version": "0.6.12+commit.27d51765.Emscripten.clang"
  },
  "schemaVersion": "3.4.5",
  "updatedAt": "2022-03-29T19:54:33.372Z",
  "devdoc": {
    "kind": "dev",
    "methods": {},
    "version": 1
  },
  "userdoc": {
    "kind": "user",
    "methods": {
      "executeOperation(address[],uint256[],uint256[],address,bytes)": {
        "notice": "This function is called after your contract has received the flash loaned amount"
      }
    },
    "version": 1
  }
}